:020000020000FC
:1000000000E10AB907E800BD03E309B90FEF0ABB35
:1000100007BB8898909A00E004BB0FEF05BB07E888
:1000200006B900EC07B904E00EBF0FE50DBFD1E043
:100030005F9BFECF0CB1369A0E941F00F9CF349B14
:10004000FECF349A44B175B10E942C00999901C039
:100050004D0F0E94330008959899F8CF493108F068
:100060000895C79AF6CFB8ECF0E0E4E644B175B174
:1000700020D003D0BA95C1F70895E50FF01D11D037
:1000800027EF13D0E60FF01D0CD02BEF0ED0E80FAA
:10009000F01D07D02DEF09D0E90FF01D02D02EEF93
:1000A00004D00994F0E0E4E608951BBB28BB2AD0F5
:1000B0000895542F5F70642F62956F70872F8F7033
:1000C000972F92959F70089509C00AC00BC00CC06D
:1000D0000DC00EC00FC010C011C012C01FE3E2CF90
:1000E00016E0E0CF1BE5DECF1FE4DCCF16EEDACF63
:1000F0001DE6D8CF1DE7D6CF13E0D4CF1FE7D2CF70
:100100001FE6D0CFCEE1AFEF00000000AA95E1F7E7
:06011000CA95C9F708952D
:00000001FF
